{
  "contractName": "Controller",
  "abi": [
    {
      "inputs": [
        {
          "internalType": "uint8",
          "name": "initialParticles",
          "type": "uint8"
        },
        {
          "internalType": "address",
          "name": "_targetFunctionContractAddress",
          "type": "address"
        }
      ],
      "stateMutability": "payable",
      "type": "constructor",
      "payable": true
    },
    {
      "anonymous": false,
      "inputs": [
        {
          "indexed": false,
          "internalType": "address",
          "name": "particle",
          "type": "address"
        },
        {
          "indexed": false,
          "internalType": "int256[3]",
          "name": "old",
          "type": "int256[3]"
        },
        {
          "indexed": false,
          "internalType": "int256[3]",
          "name": "newVar",
          "type": "int256[3]"
        }
      ],
      "name": "NewBestGlobal",
      "type": "event"
    },
    {
      "anonymous": false,
      "inputs": [
        {
          "indexed": false,
          "internalType": "address",
          "name": "particle",
          "type": "address"
        },
        {
          "indexed": false,
          "internalType": "int256[2]",
          "name": "position",
          "type": "int256[2]"
        },
        {
          "indexed": false,
          "internalType": "int256[2]",
          "name": "speed",
          "type": "int256[2]"
        }
      ],
      "name": "ParticleBorn",
      "type": "event"
    },
    {
      "anonymous": false,
      "inputs": [
        {
          "indexed": false,
          "internalType": "address",
          "name": "newTargetFunction",
          "type": "address"
        }
      ],
      "name": "TargetFunctionUpdated",
      "type": "event"
    },
    {
      "inputs": [
        {
          "internalType": "uint256",
          "name": "",
          "type": "uint256"
        }
      ],
      "name": "bestPoint",
      "outputs": [
        {
          "internalType": "int256",
          "name": "",
          "type": "int256"
        }
      ],
      "stateMutability": "view",
      "type": "function",
      "constant": true
    },
    {
      "inputs": [
        {
          "internalType": "uint256",
          "name": "",
          "type": "uint256"
        }
      ],
      "name": "particles",
      "outputs": [
        {
          "internalType": "contract Particle",
          "name": "",
          "type": "address"
        }
      ],
      "stateMutability": "view",
      "type": "function",
      "constant": true
    },
    {
      "inputs": [],
      "name": "targetFunctionAddress",
      "outputs": [
        {
          "internalType": "address",
          "name": "",
          "type": "address"
        }
      ],
      "stateMutability": "view",
      "type": "function",
      "constant": true
    },
    {
      "inputs": [
        {
          "internalType": "int256[3]",
          "name": "newVar",
          "type": "int256[3]"
        }
      ],
      "name": "setBestPoint",
      "outputs": [],
      "stateMutability": "nonpayable",
      "type": "function"
    },
    {
      "inputs": [],
      "name": "getBestPoint",
      "outputs": [
        {
          "internalType": "int256[3]",
          "name": "",
          "type": "int256[3]"
        }
      ],
      "stateMutability": "view",
      "type": "function",
      "constant": true
    },
    {
      "inputs": [],
      "name": "iterateAll",
      "outputs": [],
      "stateMutability": "nonpayable",
      "type": "function"
    },
    {
      "inputs": [
        {
          "internalType": "address",
          "name": "_newTargetFunctionAddress",
          "type": "address"
        }
      ],
      "name": "updateTargetFunction",
      "outputs": [],
      "stateMutability": "nonpayable",
      "type": "function"
    },
    {
      "inputs": [
        {
          "internalType": "address",
          "name": "particleAddress",
          "type": "address"
        }
      ],
      "name": "addParticle",
      "outputs": [],
      "stateMutability": "nonpayable",
      "type": "function"
    },
    {
      "inputs": [],
      "name": "getParticlesCount",
      "outputs": [
        {
          "internalType": "uint256",
          "name": "",
          "type": "uint256"
        }
      ],
      "stateMutability": "view",
      "type": "function",
      "constant": true
    }
  ],
  "bytecode": "0x608060405260405162001af538038062001af5833981016040819052620000269162000318565b600480546001600160a01b0319166001600160a01b03831617905560005b60028110156200007c57600080826003811062000065576200006562000367565b015580620000738162000393565b91505062000044565b506298967f60025560005b8260ff168161ffff1610156200025e57620000a1620002ec565b620000ab620002ec565b60005b60028160ff1610156200016d57620000ec61025719610258620000d3846001620003af565b620000e29060ff1688620003d7565b61ffff1662000267565b838260ff166002811062000104576200010462000367565b60200201526200013b60271960286200011f846001620003af565b60ff166200012f8860c8620003d7565b620000e29190620003d7565b828260ff166002811062000153576200015362000367565b602002015280620001648162000404565b915050620000ae565b506000670de0b6b3a7640000308685856040516200018b906200030a565b6200019a949392919062000451565b6040518091039082f0905080158015620001b8573d6000803e3d6000fd5b50600380546001810182556000919091527fc2575a0e9e593c00f959f8c92f12db2869c3395a3b0502d05e2516446f71f85b0180546001600160a01b0319166001600160a01b0383161790556040519091507fd32335caf9938ac977f5ce6d478d82d5f55991437c4ede43cfaf0e4b9b81f43e906200023d9083908690869062000490565b60405180910390a150505080806200025590620004c6565b91505062000087565b50505062000599565b60408051426020820152449181019190915233606082015263ffffffff82166080820152600090819060a00160408051601f19818403018152919052805160209091012090506000620002bb8686620004ea565b620002c89060016200052f565b620002d4908362000576565b9050620002e286826200052f565b9695505050505050565b60405180604001604052806002906020820280368337509192915050565b610d4c8062000da983390190565b600080604083850312156200032c57600080fd5b825160ff811681146200033e57600080fd5b60208401519092506001600160a01b03811681146200035c57600080fd5b809150509250929050565b634e487b7160e01b600052603260045260246000fd5b634e487b7160e01b600052601160045260246000fd5b600060018201620003a857620003a86200037d565b5060010190565b600060ff821660ff84168060ff03821115620003cf57620003cf6200037d565b019392505050565b600061ffff80831681851681830481118215151615620003fb57620003fb6200037d565b02949350505050565b600060ff821660ff81036200041d576200041d6200037d565b60010192915050565b8060005b60028110156200044b5781518452602093840193909101906001016200042a565b50505050565b6001600160a01b0385811682528416602082015260c0810162000478604083018562000426565b62000487608083018462000426565b95945050505050565b6001600160a01b038416815260a08101620004af602083018562000426565b620004be606083018462000426565b949350505050565b600061ffff808316818103620004e057620004e06200037d565b6001019392505050565b60008083128015600160ff1b8501841216156200050b576200050b6200037d565b6001600160ff1b03840183138116156200052957620005296200037d565b50500390565b600080821280156001600160ff1b03849003851316156200055457620005546200037d565b600160ff1b83900384128116156200057057620005706200037d565b50500190565b6000826200059457634e487b7160e01b600052601260045260246000fd5b500690565b61080080620005a96000396000f3fe608060405234801561001057600080fd5b50600436106100935760003560e01c80639325f1d8116100665780639325f1d8146100df5780639fde4758146100f2578063a0020c7414610105578063b06a87dc14610130578063fd7639961461014557600080fd5b80630daea8c31461009857806318befd3c146100ad5780635d3b0286146100c05780638f3201a9146100d7575b600080fd5b6100ab6100a636600461060d565b610158565b005b6100ab6100bb36600461060d565b610333565b6003545b6040519081526020015b60405180910390f35b6100ab610423565b6100ab6100ed36600461063d565b6104b9565b6100c4610100366004610665565b610502565b600454610118906001600160a01b031681565b6040516001600160a01b0390911681526020016100ce565b610138610519565b6040516100ce919061067e565b610118610153366004610665565b610554565b600380546001810182556000919091527fc2575a0e9e593c00f959f8c92f12db2869c3395a3b0502d05e2516446f71f85b0180546001600160a01b0319166001600160a01b038316179055806101ac61057e565b6101b461057e565b60005b600281101561025257604051637bd4ad4f60e11b8152600481018290526001600160a01b0385169063f7a95a9e90602401602060405180830381865afa158015610205573d6000803e3d6000fd5b505050506040513d601f19601f8201168201806040525081019061022991906106af565b83826002811061023b5761023b6106c8565b60200201528061024a816106de565b9150506101b7565b5060005b60028110156102f157604051637b6f7f4960e01b8152600481018290526001600160a01b03851690637b6f7f4990602401602060405180830381865afa1580156102a4573d6000803e3d6000fd5b505050506040513d601f19601f820116820180604052508101906102c891906106af565b8282600281106102da576102da6106c8565b6020020152806102e9816106de565b915050610256565b507fd32335caf9938ac977f5ce6d478d82d5f55991437c4ede43cfaf0e4b9b81f43e8383836040516103259392919061072e565b60405180910390a150505050565b600480546001600160a01b0319166001600160a01b0383169081179091556040519081527f41160bd6cc2802cf5139dfbdd3dfc46fd1f4d62ad1fb70b3b911d89604056c699060200160405180910390a160005b60035481101561041f57600381815481106103a4576103a46106c8565b60009182526020909120015460405163062fbf4f60e21b81526001600160a01b038481166004830152909116906318befd3c90602401600060405180830381600087803b1580156103f457600080fd5b505af1158015610408573d6000803e3d6000fd5b505050508080610417906106de565b915050610387565b5050565b60005b6003548110156104b65760038181548110610443576104436106c8565b600091825260208220015460408051631e8fc48160e11b815290516001600160a01b0390921692633d1f89029260048084019382900301818387803b15801561048b57600080fd5b505af115801561049f573d6000803e3d6000fd5b5050505080806104ae906106de565b915050610426565b50565b7f1aa1ba24007a5c092bed27a4ee8ae200a95f7996f45d0ea2c030446659078745336000836040516104ed93929190610760565b60405180910390a161041f600082600361059c565b6000816003811061051257600080fd5b0154905081565b6105216105da565b6040805160608101918290529060009060039082845b815481526020019060010190808311610537575050505050905090565b6003818154811061056457600080fd5b6000918252602090912001546001600160a01b0316905081565b60405180604001604052806002906020820280368337509192915050565b82600381019282156105ca579160200282015b828111156105ca5782358255916020019190600101906105af565b506105d69291506105f8565b5090565b60405180606001604052806003906020820280368337509192915050565b5b808211156105d657600081556001016105f9565b60006020828403121561061f57600080fd5b81356001600160a01b038116811461063657600080fd5b9392505050565b60006060828403121561064f57600080fd5b8260608301111561065f57600080fd5b50919050565b60006020828403121561067757600080fd5b5035919050565b60608101818360005b60038110156106a6578151835260209283019290910190600101610687565b50505092915050565b6000602082840312156106c157600080fd5b5051919050565b634e487b7160e01b600052603260045260246000fd5b6000600182016106fe57634e487b7160e01b600052601160045260246000fd5b5060010190565b8060005b6002811015610728578151845260209384019390910190600101610709565b50505050565b6001600160a01b038416815260a0810161074b6020830185610705565b6107586060830184610705565b949350505050565b6001600160a01b038416815260e0810160208083018560005b600381101561079657815483529183019160019182019101610779565b505050608083018460005b60038110156107be578135835291830191908301906001016107a1565b5050505094935050505056fea26469706673582212200b3fc4045d40a34490917834af6ced267ef01fd428bed009a6d2ac425fca706764736f6c634300080d0033608060405264e8d4a50fff600655600060095560405162000d4c38038062000d4c8339810160408190526200003491620001e2565b600a80546001600160a01b038087166001600160a01b031992831617909255600280549286169290911691909117815562000074906000908490620000e9565b50620000846007826002620000e9565b5060005b6002811015620000d75760008160028110620000a857620000a862000241565b015460038260038110620000c057620000c062000241565b015580620000ce8162000257565b91505062000088565b5050600654600555506200027f915050565b82600281019282156200011a579160200282015b828111156200011a578251825591602001919060010190620000fd565b50620001289291506200012c565b5090565b5b808211156200012857600081556001016200012d565b80516001600160a01b03811681146200015b57600080fd5b919050565b600082601f8301126200017257600080fd5b604080519081016001600160401b0381118282101715620001a357634e487b7160e01b600052604160045260246000fd5b8060405250806040840185811115620001bb57600080fd5b845b81811015620001d7578051835260209283019201620001bd565b509195945050505050565b60008060008060c08587031215620001f957600080fd5b620002048562000143565b9350620002146020860162000143565b925062000225866040870162000160565b915062000236866080870162000160565b905092959194509250565b634e487b7160e01b600052603260045260246000fd5b6000600182016200027857634e487b7160e01b600052601160045260246000fd5b5060010190565b610abd806200028f6000396000f3fe608060405234801561001057600080fd5b50600436106100625760003560e01c806306cb7a2a1461006757806318befd3c1461008d5780633d1f8902146100a25780637b6f7f49146100aa578063a341a91b146100bd578063f7a95a9e146100e8575b600080fd5b61007a61007536600461071a565b6100fb565b6040519081526020015b60405180910390f35b6100a061009b366004610733565b610112565b005b6100a06101ad565b61007a6100b836600461071a565b6103ce565b6002546100d0906001600160a01b031681565b6040516001600160a01b039091168152602001610084565b61007a6100f636600461071a565b6103de565b6003816003811061010b57600080fd5b0154905081565b600a546001600160a01b0316331461018b5760405162461bcd60e51b815260206004820152603260248201527f4f6e6c792074686520636f6e74726f6c6c65722063616e2075706461746520746044820152713432903a30b933b2ba10333ab731ba34b7b760711b606482015260840160405180910390fd5b600280546001600160a01b0319166001600160a01b0392909216919091179055565b60006101bb602d605a6103ee565b905060006101ca826064610779565b90506000600a60009054906101000a90046001600160a01b03166001600160a01b031663b06a87dc6040518163ffffffff1660e01b8152600401606060405180830381865afa158015610221573d6000803e3d6000fd5b505050506040513d601f19601f8201168201806040525081019061024591906107b8565b905060006102568385602185610487565b6005549091508112156103c857604080516060810191829052600091600390819081845b81548152602001906001019080831161027a575050505050905060005b60028110156102dc57600081600281106102b3576102b3610844565b0154600382600381106102c8576102c8610844565b0155806102d48161085a565b915050610297565b5060058290556040805160608082018352835182526020808501518184015284840151838501528351918201845260035482526004549082015280830185905291517fe6c793902504211ef85e1f8fddc146e5d07bd860d377bb2e1db5a9efe5fa95a49261034e923392909190610873565b60405180910390a160408301518212156103c657600a54604051631264be3b60e31b81526001600160a01b0390911690639325f1d890610393906003906004016108c4565b600060405180830381600087803b1580156103ad57600080fd5b505af11580156103c1573d6000803e3d6000fd5b505050505b505b50505050565b6007816002811061010b57600080fd5b6000816002811061010b57600080fd5b60098054600091826103ff8361085a565b90915550600090506104126001436108f5565b60095460408051924060208401526bffffffffffffffffffffffff193360601b1690830152605482015260740160408051601f19818403018152919052805160209091012090508060006104668686610779565b9050856104738284610922565b61047d9190610936565b9695505050505050565b60006104916106a9565b601e60005b600281101561061a5760006064600083600281106104b6576104b6610844565b01548784600381106104ca576104ca610844565b60200201516104d99190610779565b6104e3908a610977565b6104ed91906109fc565b60646000846002811061050257610502610844565b01546003856003811061051757610517610844565b01546105239190610779565b61052d908c610977565b61053791906109fc565b6064896007866002811061054d5761054d610844565b01546105599190610977565b61056391906109fc565b61056d9190610936565b6105779190610936565b9050828113156105885750816105a4565b61059183610a2a565b8112156105a4576105a183610a2a565b90505b808483600281106105b7576105b7610844565b60200201528382600281106105ce576105ce610844565b6020020151600083600281106105e6576105e6610844565b01546105f29190610936565b6000836002811061060557610605610844565b015550806106128161085a565b915050610496565b5061062860078360026106c7565b50600254604051632674744360e01b81526000916001600160a01b03169063267474439061065a908490600401610a46565b602060405180830381865afa158015610677573d6000803e3d6000fd5b505050506040513d601f19601f8201168201806040525081019061069b9190610a6e565b93505050505b949350505050565b60405180604001604052806002906020820280368337509192915050565b82600281019282156106f5579160200282015b828111156106f55782518255916020019190600101906106da565b50610701929150610705565b5090565b5b808211156107015760008155600101610706565b60006020828403121561072c57600080fd5b5035919050565b60006020828403121561074557600080fd5b81356001600160a01b038116811461075c57600080fd5b9392505050565b634e487b7160e01b600052601160045260246000fd5b60008083128015600160ff1b85018412161561079757610797610763565b6001600160ff1b03840183138116156107b2576107b2610763565b50500390565b6000606082840312156107ca57600080fd5b82601f8301126107d957600080fd5b6040516060810181811067ffffffffffffffff8211171561080a57634e487b7160e01b600052604160045260246000fd5b60405280606084018581111561081f57600080fd5b845b81811015610839578051835260209283019201610821565b509195945050505050565b634e487b7160e01b600052603260045260246000fd5b60006001820161086c5761086c610763565b5060010190565b6001600160a01b038416815260e081016108a460208301858051825260208082015190830152604090810151910152565b82516080830152602083015160a0830152604083015160c08301526106a1565b60608101818360005b60038110156108ec5781548352602090920191600191820191016108cd565b50505092915050565b60008282101561090757610907610763565b500390565b634e487b7160e01b600052601260045260246000fd5b6000826109315761093161090c565b500790565b600080821280156001600160ff1b038490038513161561095857610958610763565b600160ff1b839003841281161561097157610971610763565b50500190565b60006001600160ff1b038184138284138082168684048611161561099d5761099d610763565b600160ff1b60008712828116878305891216156109bc576109bc610763565b600087129250878205871284841616156109d8576109d8610763565b878505871281841616156109ee576109ee610763565b505050929093029392505050565b600082610a0b57610a0b61090c565b600160ff1b821460001984141615610a2557610a25610763565b500590565b6000600160ff1b8201610a3f57610a3f610763565b5060000390565b60408101818360005b60028110156108ec578154835260209092019160019182019101610a4f565b600060208284031215610a8057600080fd5b505191905056fea26469706673582212205db809268f571a278b8669c8ae28c11591102d42bbe65be6c0c1e17d6d2e84f264736f6c634300080d0033",
  "immutableReferences": {},
  "source": "// SPDX-License-Identifier: MIT\r\npragma solidity ^0.8.0;\r\n\r\nimport \"./Particle.sol\";\r\n\r\ncontract Controller {\r\n    int[dimension + 1] public bestPoint;\r\n    Particle[] public particles;\r\n    address public targetFunctionAddress;\r\n\r\n    event NewBestGlobal(address particle, int[dimension + 1] old, int[dimension + 1] newVar);\r\n    event ParticleBorn(address particle, int[dimension] position, int[dimension] speed);\r\n    event TargetFunctionUpdated(address newTargetFunction);\r\n\r\n    constructor(uint8 initialParticles, address _targetFunctionContractAddress) payable {\r\n        targetFunctionAddress = _targetFunctionContractAddress;\r\n        for (uint i = 0; i < dimension; i++) {\r\n            bestPoint[i] = 0;\r\n        }\r\n        bestPoint[dimension] = 9999999;\r\n        for (uint16 i = 0; i < initialParticles; i++) {\r\n            int[dimension] memory start;\r\n            int[dimension] memory velocity;\r\n            for (uint8 j = 0; j < dimension; j++) {\r\n                start[j] = random(- 600, 600, i * (j+1));\r\n                velocity[j] = random(- 40, 40, 200 * i * (j+1));\r\n            }\r\n            Particle newParticle = (new Particle){value: 1 ether}(address(this), _targetFunctionContractAddress, start, velocity);\r\n            particles.push(newParticle);\r\n            emit ParticleBorn(address(newParticle), start, velocity);\r\n        }\r\n    }\r\n\r\n    function setBestPoint(int[dimension + 1] calldata newVar) public {\r\n        emit NewBestGlobal(msg.sender, bestPoint, newVar);\r\n        bestPoint = newVar;\r\n    }\r\n\r\n    function getBestPoint() public view returns (int[dimension + 1] memory) {\r\n        return bestPoint;\r\n    }\r\n\r\n    function iterateAll() public {\r\n        for (uint i = 0; i < particles.length; i++) {\r\n            particles[i].iterate();\r\n        }\r\n    }\r\n\r\n    function random(int min, int max, uint32 nonce) private view returns (int) {\r\n        uint256 seed = uint256(keccak256(abi.encode(block.timestamp, block.difficulty, msg.sender, nonce)));\r\n        uint256 rand = seed % uint256(max - min + 1);\r\n        return int(rand) + min;\r\n    }\r\n\r\n    function updateTargetFunction(address _newTargetFunctionAddress) public {\r\n        targetFunctionAddress = _newTargetFunctionAddress;\r\n        emit TargetFunctionUpdated(_newTargetFunctionAddress);\r\n        for (uint i = 0; i < particles.length; i++) {\r\n            particles[i].updateTargetFunction(_newTargetFunctionAddress);\r\n        }\r\n    }\r\n\r\n    function addParticle(address particleAddress) public {\r\n        // Create a new instance of the Particle contract\r\n        Particle particle = Particle(particleAddress);\r\n        // Add the new particle to the array of particles\r\n        particles.push(particle);\r\n        int[dimension] memory position;\r\n        int[dimension] memory speed;\r\n        for (uint i = 0; i < dimension; i++) {\r\n            position[i] = particle.position(i);\r\n        }\r\n        for (uint i = 0; i < dimension; i++) {\r\n            speed[i] = particle.speed(i);\r\n        }\r\n        emit ParticleBorn(address(particle), position, speed);\r\n    }\r\n\r\n    function getParticlesCount() public view returns (uint) {\r\n        return particles.length;\r\n    }\r\n}\r\n",
  "sourcePath": "D:\\Drive\\Licenta\\2 contracts\\contracts\\Controller.sol",
  "compiler": {
    "name": "solc",
    "version": "0.8.13+commit.abaa5c0e.Emscripten.clang"
  },
  "schemaVersion": "3.4.16",
  "updatedAt": "2024-06-06T23:55:19.405Z",
  "networkType": "ethereum",
  "devdoc": {
    "kind": "dev",
    "methods": {},
    "version": 1
  },
  "userdoc": {
    "kind": "user",
    "methods": {},
    "version": 1
  }
}