{
  "contractName": "Particle",
  "abi": [
    {
      "inputs": [
        {
          "internalType": "address",
          "name": "_controllerAddress",
          "type": "address"
        },
        {
          "internalType": "address",
          "name": "_TargetContractAddress",
          "type": "address"
        },
        {
          "internalType": "int256[2]",
          "name": "initialPos",
          "type": "int256[2]"
        },
        {
          "internalType": "int256[2]",
          "name": "initialVelocity",
          "type": "int256[2]"
        }
      ],
      "stateMutability": "payable",
      "type": "constructor",
      "payable": true
    },
    {
      "anonymous": false,
      "inputs": [
        {
          "indexed": false,
          "internalType": "address",
          "name": "particle",
          "type": "address"
        },
        {
          "components": [
            {
              "internalType": "int256",
              "name": "x",
              "type": "int256"
            },
            {
              "internalType": "int256",
              "name": "y",
              "type": "int256"
            },
            {
              "internalType": "int256",
              "name": "z",
              "type": "int256"
            }
          ],
          "indexed": false,
          "internalType": "struct Point3",
          "name": "old",
          "type": "tuple"
        },
        {
          "components": [
            {
              "internalType": "int256",
              "name": "x",
              "type": "int256"
            },
            {
              "internalType": "int256",
              "name": "y",
              "type": "int256"
            },
            {
              "internalType": "int256",
              "name": "z",
              "type": "int256"
            }
          ],
          "indexed": false,
          "internalType": "struct Point3",
          "name": "newVal",
          "type": "tuple"
        }
      ],
      "name": "NewLocalMin",
      "type": "event"
    },
    {
      "inputs": [
        {
          "internalType": "uint256",
          "name": "",
          "type": "uint256"
        }
      ],
      "name": "localBest",
      "outputs": [
        {
          "internalType": "int256",
          "name": "",
          "type": "int256"
        }
      ],
      "stateMutability": "view",
      "type": "function",
      "constant": true
    },
    {
      "inputs": [
        {
          "internalType": "uint256",
          "name": "",
          "type": "uint256"
        }
      ],
      "name": "position",
      "outputs": [
        {
          "internalType": "int256",
          "name": "",
          "type": "int256"
        }
      ],
      "stateMutability": "view",
      "type": "function",
      "constant": true
    },
    {
      "inputs": [
        {
          "internalType": "uint256",
          "name": "",
          "type": "uint256"
        }
      ],
      "name": "speed",
      "outputs": [
        {
          "internalType": "int256",
          "name": "",
          "type": "int256"
        }
      ],
      "stateMutability": "view",
      "type": "function",
      "constant": true
    },
    {
      "inputs": [],
      "name": "targetFunction",
      "outputs": [
        {
          "internalType": "contract IFunction",
          "name": "",
          "type": "address"
        }
      ],
      "stateMutability": "view",
      "type": "function",
      "constant": true
    },
    {
      "inputs": [],
      "name": "iterate",
      "outputs": [],
      "stateMutability": "nonpayable",
      "type": "function"
    },
    {
      "inputs": [
        {
          "internalType": "address",
          "name": "_newTargetFunctionAddress",
          "type": "address"
        }
      ],
      "name": "updateTargetFunction",
      "outputs": [],
      "stateMutability": "nonpayable",
      "type": "function"
    }
  ],
  "bytecode": "0x608060405264e8d4a50fff600655600060095560405162000d4c38038062000d4c8339810160408190526200003491620001e2565b600a80546001600160a01b038087166001600160a01b031992831617909255600280549286169290911691909117815562000074906000908490620000e9565b50620000846007826002620000e9565b5060005b6002811015620000d75760008160028110620000a857620000a862000241565b015460038260038110620000c057620000c062000241565b015580620000ce8162000257565b91505062000088565b5050600654600555506200027f915050565b82600281019282156200011a579160200282015b828111156200011a578251825591602001919060010190620000fd565b50620001289291506200012c565b5090565b5b808211156200012857600081556001016200012d565b80516001600160a01b03811681146200015b57600080fd5b919050565b600082601f8301126200017257600080fd5b604080519081016001600160401b0381118282101715620001a357634e487b7160e01b600052604160045260246000fd5b8060405250806040840185811115620001bb57600080fd5b845b81811015620001d7578051835260209283019201620001bd565b509195945050505050565b60008060008060c08587031215620001f957600080fd5b620002048562000143565b9350620002146020860162000143565b925062000225866040870162000160565b915062000236866080870162000160565b905092959194509250565b634e487b7160e01b600052603260045260246000fd5b6000600182016200027857634e487b7160e01b600052601160045260246000fd5b5060010190565b610abd806200028f6000396000f3fe608060405234801561001057600080fd5b50600436106100625760003560e01c806306cb7a2a1461006757806318befd3c1461008d5780633d1f8902146100a25780637b6f7f49146100aa578063a341a91b146100bd578063f7a95a9e146100e8575b600080fd5b61007a61007536600461071a565b6100fb565b6040519081526020015b60405180910390f35b6100a061009b366004610733565b610112565b005b6100a06101ad565b61007a6100b836600461071a565b6103ce565b6002546100d0906001600160a01b031681565b6040516001600160a01b039091168152602001610084565b61007a6100f636600461071a565b6103de565b6003816003811061010b57600080fd5b0154905081565b600a546001600160a01b0316331461018b5760405162461bcd60e51b815260206004820152603260248201527f4f6e6c792074686520636f6e74726f6c6c65722063616e2075706461746520746044820152713432903a30b933b2ba10333ab731ba34b7b760711b606482015260840160405180910390fd5b600280546001600160a01b0319166001600160a01b0392909216919091179055565b60006101bb602d605a6103ee565b905060006101ca826064610779565b90506000600a60009054906101000a90046001600160a01b03166001600160a01b031663b06a87dc6040518163ffffffff1660e01b8152600401606060405180830381865afa158015610221573d6000803e3d6000fd5b505050506040513d601f19601f8201168201806040525081019061024591906107b8565b905060006102568385602185610487565b6005549091508112156103c857604080516060810191829052600091600390819081845b81548152602001906001019080831161027a575050505050905060005b60028110156102dc57600081600281106102b3576102b3610844565b0154600382600381106102c8576102c8610844565b0155806102d48161085a565b915050610297565b5060058290556040805160608082018352835182526020808501518184015284840151838501528351918201845260035482526004549082015280830185905291517fe6c793902504211ef85e1f8fddc146e5d07bd860d377bb2e1db5a9efe5fa95a49261034e923392909190610873565b60405180910390a160408301518212156103c657600a54604051631264be3b60e31b81526001600160a01b0390911690639325f1d890610393906003906004016108c4565b600060405180830381600087803b1580156103ad57600080fd5b505af11580156103c1573d6000803e3d6000fd5b505050505b505b50505050565b6007816002811061010b57600080fd5b6000816002811061010b57600080fd5b60098054600091826103ff8361085a565b90915550600090506104126001436108f5565b60095460408051924060208401526bffffffffffffffffffffffff193360601b1690830152605482015260740160408051601f19818403018152919052805160209091012090508060006104668686610779565b9050856104738284610922565b61047d9190610936565b9695505050505050565b60006104916106a9565b601e60005b600281101561061a5760006064600083600281106104b6576104b6610844565b01548784600381106104ca576104ca610844565b60200201516104d99190610779565b6104e3908a610977565b6104ed91906109fc565b60646000846002811061050257610502610844565b01546003856003811061051757610517610844565b01546105239190610779565b61052d908c610977565b61053791906109fc565b6064896007866002811061054d5761054d610844565b01546105599190610977565b61056391906109fc565b61056d9190610936565b6105779190610936565b9050828113156105885750816105a4565b61059183610a2a565b8112156105a4576105a183610a2a565b90505b808483600281106105b7576105b7610844565b60200201528382600281106105ce576105ce610844565b6020020151600083600281106105e6576105e6610844565b01546105f29190610936565b6000836002811061060557610605610844565b015550806106128161085a565b915050610496565b5061062860078360026106c7565b50600254604051632674744360e01b81526000916001600160a01b03169063267474439061065a908490600401610a46565b602060405180830381865afa158015610677573d6000803e3d6000fd5b505050506040513d601f19601f8201168201806040525081019061069b9190610a6e565b93505050505b949350505050565b60405180604001604052806002906020820280368337509192915050565b82600281019282156106f5579160200282015b828111156106f55782518255916020019190600101906106da565b50610701929150610705565b5090565b5b808211156107015760008155600101610706565b60006020828403121561072c57600080fd5b5035919050565b60006020828403121561074557600080fd5b81356001600160a01b038116811461075c57600080fd5b9392505050565b634e487b7160e01b600052601160045260246000fd5b60008083128015600160ff1b85018412161561079757610797610763565b6001600160ff1b03840183138116156107b2576107b2610763565b50500390565b6000606082840312156107ca57600080fd5b82601f8301126107d957600080fd5b6040516060810181811067ffffffffffffffff8211171561080a57634e487b7160e01b600052604160045260246000fd5b60405280606084018581111561081f57600080fd5b845b81811015610839578051835260209283019201610821565b509195945050505050565b634e487b7160e01b600052603260045260246000fd5b60006001820161086c5761086c610763565b5060010190565b6001600160a01b038416815260e081016108a460208301858051825260208082015190830152604090810151910152565b82516080830152602083015160a0830152604083015160c08301526106a1565b60608101818360005b60038110156108ec5781548352602090920191600191820191016108cd565b50505092915050565b60008282101561090757610907610763565b500390565b634e487b7160e01b600052601260045260246000fd5b6000826109315761093161090c565b500790565b600080821280156001600160ff1b038490038513161561095857610958610763565b600160ff1b839003841281161561097157610971610763565b50500190565b60006001600160ff1b038184138284138082168684048611161561099d5761099d610763565b600160ff1b60008712828116878305891216156109bc576109bc610763565b600087129250878205871284841616156109d8576109d8610763565b878505871281841616156109ee576109ee610763565b505050929093029392505050565b600082610a0b57610a0b61090c565b600160ff1b821460001984141615610a2557610a25610763565b500590565b6000600160ff1b8201610a3f57610a3f610763565b5060000390565b60408101818360005b60028110156108ec578154835260209092019160019182019101610a4f565b600060208284031215610a8057600080fd5b505191905056fea26469706673582212205db809268f571a278b8669c8ae28c11591102d42bbe65be6c0c1e17d6d2e84f264736f6c634300080d0033",
  "immutableReferences": {},
  "source": "// SPDX-License-Identifier: MIT\r\npragma solidity ^0.8.0;\r\n\r\nimport \"./IFunction.sol\";\r\n\r\n    struct Point2 {\r\n        int x;\r\n        int y;\r\n    }\r\n\r\n    struct Point3 {\r\n        int x;\r\n        int y;\r\n        int z;\r\n    }\r\n\r\ncontract Particle {\r\n    int[dimension] public position;\r\n    IFunction public targetFunction;\r\n    int[dimension + 1] public localBest;\r\n    int private localMin = 999999999999;\r\n    int[dimension] public speed;\r\n    uint private nonce = 0;\r\n    IController private controller;\r\n\r\n    event NewLocalMin(address particle, Point3 old, Point3 newVal);\r\n\r\n    constructor(address _controllerAddress, address _TargetContractAddress, int[dimension] memory initialPos, int[dimension] memory initialVelocity) payable {\r\n        controller = IController(_controllerAddress);\r\n        targetFunction = IFunction(_TargetContractAddress);\r\n        position = initialPos;\r\n        speed = initialVelocity;\r\n        for (uint i = 0; i < dimension; i++) {\r\n            localBest[i] = position[i];\r\n        }\r\n        localBest[dimension] = localMin;\r\n    }\r\n\r\n    function iterate() public {\r\n        int socialFactor = random(45, 90);\r\n        int cognitiveFactor = 100 - socialFactor;\r\n        int[dimension + 1] memory globalBest = controller.getBestPoint();\r\n\r\n        int newVal = findNewVal(cognitiveFactor, socialFactor, 33, globalBest);\r\n        if (newVal < localBest[dimension]) {\r\n            int[dimension + 1] memory old = localBest;\r\n            for (uint i = 0; i < dimension; i++) {\r\n                localBest[i] = position[i];\r\n            }\r\n            localBest[dimension] = newVal;\r\n            emit NewLocalMin(msg.sender, Point3(old[0], old[1], old[2]), Point3(localBest[0], localBest[1], localBest[2]));\r\n            if (newVal < globalBest[dimension]) {\r\n                controller.setBestPoint(localBest);\r\n            }\r\n        }\r\n    }\r\n\r\n    function findNewVal(int cogF, int socialF, int inertiaF, int[dimension + 1] memory globalBest) private returns (int) {\r\n        int[dimension] memory newSpeed;\r\n        int maxSpeed = 30;\r\n        for (uint i = 0; i < dimension; i++) {\r\n            int newSpeedi = speed[i] * inertiaF / 100 + cogF * (localBest[i] - position[i]) / 100 + socialF * (globalBest[i] - position[i]) / 100;\r\n\r\n            if (newSpeedi > maxSpeed) {\r\n                newSpeedi = maxSpeed;\r\n            } else if (newSpeedi < -maxSpeed) {\r\n                newSpeedi = -maxSpeed;\r\n            }\r\n\r\n            newSpeed[i] = newSpeedi;\r\n            position[i] = position[i] + newSpeed[i];\r\n        }\r\n        speed = newSpeed;\r\n        int value = targetFunction.compute(position);\r\n        return value;\r\n    }\r\n\r\n    function random(int min, int max) private returns (int) {\r\n        nonce++;\r\n        uint rand = uint(keccak256(abi.encodePacked(blockhash(block.number - 1), msg.sender, nonce)));\r\n        int randi = int(rand);\r\n        int interval = max - min;\r\n        return randi % interval + min;\r\n    }\r\n\r\n    function updateTargetFunction(address _newTargetFunctionAddress) external {\r\n        require(msg.sender == address(controller), \"Only the controller can update the target function\");\r\n        targetFunction = IFunction(_newTargetFunctionAddress);\r\n    }\r\n}\r\n\r\ninterface IController {\r\n    function getBestPoint() external view returns (int[3] memory);\r\n\r\n    function setBestPoint(int[3] memory newVar) external;\r\n}\r\n",
  "sourcePath": "D:\\Drive\\Licenta\\2 contracts\\contracts\\Particle.sol",
  "compiler": {
    "name": "solc",
    "version": "0.8.13+commit.abaa5c0e.Emscripten.clang"
  },
  "schemaVersion": "3.4.16",
  "updatedAt": "2024-06-06T23:55:19.393Z",
  "networkType": "ethereum",
  "devdoc": {
    "kind": "dev",
    "methods": {},
    "version": 1
  },
  "userdoc": {
    "kind": "user",
    "methods": {},
    "version": 1
  }
}